:060000000A128A11122809
:10000800FE00030EF0000408F1000A08F200831253
:1000180003137F08F3000A128A11E62B0A128A11C9
:100028001528F901CA01CB0183134A30FD000430B9
:10003800FE00E030FF00403084000A128A11B32429
:1000480083010A128A11322CE83083120313A100AB
:100058000330A2002A08A401A4072908A301A307C2
:100068000A128A113F220A128A11831203132108E5
:10007800AC002C08AE006430A1000030A2002A08B1
:10008800F701F7072908F601F607E830F40003300E
:10009800F5000A128A11FA220A128A1175088312C7
:1000A8000313A401A4077408A301A3070A128A1161
:1000B8003F220A128A11831203132108AC002C086C
:1000C800AF000A30A1000030A2002A08F701F707A4
:1000D8002908F601F6076430F4000030F5000A122A
:1000E8008A11FA220A128A11750883120313A401CD
:1000F800A4077408A301A3070A128A113F220A124F
:100108008A11831203132108AC002C08B0000A30AE
:10011800F4000030F5002A08F701F7072908F6016E
:10012800F6070A128A11FA220A128A11740883122F
:100138000313AC002C08B1002B08AC0003300310EB
:10014800AC0CFF3E031DA3282C080139AD002D0877
:10015800B2002B08AC0002300310AC0CFF3E031DAC
:10016800B0282C080139AD002D08B3002B08AC00CD
:1001780003102C0C0139AD002D08B4002B080139EF
:10018800AC002C08B5002E08AC002C08F40032088E
:10019800AD002D08F50001300A128A1163230A12F6
:1001A8008A11831203132F08AC002C08F4003308BB
:1001B800AD002D08F50002300A128A1163230A12D5
:1001C8008A11831203133008AC002C08F400340899
:1001D800AD002D08F50003300A128A1163230A12B4
:1001E8008A11831203133108AC002C08F400350877
:1001F800AD002D08F50004300A128A1163230800A7
:100208008312031337083604031D40290A128A1182
:10021800FE240A128A1183120313B8003808BB009F
:100228000A128A1192230A128A1183120313B80040
:100238003808BC003C08B800B9013808F40039088F
:10024800F5006430F6000030F7000A128A11BD2369
:100258000A128A11831203133B087407A90000309D
:10026800031801307507AA000430BA003A08AB0039
:100278000A128A1128200800013083120313360657
:100288003704031D7D290A128A11F4240A128A11DF
:1002980083120313B8003808BD000A128A11082512
:1002A8000A128A1183120313B8003808BE003D08E9
:1002B800B800B9013808F4003908F5006430F600D0
:1002C8000030F7000A128A11BD230A128A1183121C
:1002D80003133E087407A90000300318013075079E
:1002E800AA000430BA003A08AB000A128A11282082
:1002F80008000A128A11EA240A128A1183120313C7
:10030800B8003808BF003F08D03EA90007300318DE
:100318000830AA00AB010A128A11282008008312AB
:100328000313A101F51F9F29F409F509F40A03191C
:10033800F50AA101A10AF71FAA29F609F709F60A81
:100348000319F70A0130F8007808A106A201A301F1
:10035800750874040319E129A001A00AF51BC02936
:1003680001300310F40DF50DFF3E031DB5290130D2
:10037800F8007808A007B22901300310A20DA30DD8
:10038800FF3E031DC12975087702031DCD29740896
:100398007602031CD6297408F6027508031CF703B5
:1003A800F702221401300310F50CF40CFF3E031D74
:1003B800D7290130A002031DC02921080319E92902
:1003C800A209A309A20A0319A30A2308F501F5073C
:1003D8002208F401F407080083120313A101F71F90
:1003E800FC29F609F709F60A0319F70AA101A10A77
:1003F800F51F032AF409F509F40A0319F50A750823
:1004080074040319302AA001A00AF51B172A013029
:100418000310F40DF50DFF3E031D0C2A0130F80002
:100428007808A007092A75087702031D1D2A740891
:100438007602031C252A7408F6027508031CF703C4
:10044800F70201300310F50CF40CFF3E031D262AB9
:100458000130A002031D172A21080319382AF609BA
:10046800F709F60A0319F70A7708F501F507760878
:10047800F401F407080083120313A601A701220858
:1004880021040319782AA801A80AA21B572A0130B7
:100498000310A10DA20DFF3E031D4C2A0130A5003B
:1004A8002508A807492A01300310A60DA70DFF3E0D
:1004B800031D582A22082402031D642A2108230246
:1004C800031C6D2A2108A3022208031CA403A4020A
:1004D800261401300310A20CA10CFF3E031D6E2A46
:1004E8000130A802031D572A2708A201A2072608DF
:1004F800A101A107080083120313AA000A30F4001F
:100508000030F5002A08A400A5012408F6002508F3
:10051800F7000A128A1193210A128A1174088312A9
:100528000313A6002608A7000A30F4000030F500DF
:100538002A08A400A5012408F6002508F7000A12D5
:100548008A11F0210A128A11740883120313A60073
:100558002608A8002708A40003300310A40DFF3EB6
:10056800031DB12A0310240D2804A5002508A9009D
:1005780029080800F801831603130715F601F70187
:100588007708803AFF0080307F02031DCD2A0830AB
:1005980076020318F82A83120313871400008312C3
:1005A8000313871000007808F4000310740CF5009A
:1005B8007508F80083120313071DE72A78088038A6
:1005C800F4007408F8000130F6070318F70A003041
:1005D800F7077708803AFF0080307F02031DF62A6C
:1005E80008307602031CCF2A7808080075087404BE
:1005F8000319292B83120313A001A00AF51B102B42
:1006080001300310F40DF50DFF3E031D052B0130DD
:10061800F8007808A007022B75087702031D162B2F
:1006280074087602031C1E2B7408F6027508031C56
:10063800F703F70201300310F50CF40CFF3E031D1D
:100648001F2B0130A002031D102B7708F501F507B9
:100658007608F401F4070800F50083160313071160
:10066800F601F7017708803AFF0080307F02031D0A
:100678003F2B0830760203180800831203138710F3
:1006880000007508F400760A4B2B0310F40CFF3EAB
:10069800031D492B741C542B831203130715572B66
:1006A8008312031307110000831203138714000039
:1006B8000130F6070318F70A0030F707362BF70062
:1006C800831203130616861606178617732B06124F
:1006D800812B8612812B0613812B8613812B770899
:1006E800013A03196B2B033A03196D2B013A0319CD
:1006F8006F2B073A0319712B812B7408403E840035
:100708008313000888007508031D8817F930F60060
:100718000000F60B8C2B902B0000080084300A1286
:100728008A1155240A128A1183120313A600260877
:10073800A800A701A81FB12B28081F390A128A117F
:100748000D240A128A1183120313A6002608A70093
:10075800A81EBB2B27080C3EB82B28083F390A12C5
:100768008A110D2483120313A6002608A700270860
:10077800080083120313A001A101741CCB2B760877
:1007880083120313A0070318A10A7708A1070130F1
:100798000310F60DF70DFF3E031DCC2B013003109F
:1007A800F50CF40CFF3E031DD32B75087404031DD0
:1007B800C12B831203132108F501F5072008F40162
:1007C800F40708008B138B1CFF2B8B100130CA0712
:1007D8000318CB0A0030CB074B08803AFF00803063
:1007E8007F02031DF92B03304A02031CFF2B8312DF
:1007F8000313CA01CB018B17730883120313FF007D
:1008080072088A0071088400700E8300FE0E7E0E46
:10081800090083120313A5002508A0000430031063
:10082800A00CFF3E031D132C20080F39A10021083E
:10083800A20025080F39A0002008A3000A30A00054
:100848002008F40022080A128A11C0248312031314
:100858002307A1002108A400240808000A128A110D
:1008680012250A128A110A128A11D1240A128A112F
:100878008316031306140B168B1718300A128A11E5
:100888009C240A128A11831203134B08B701B70775
:100898004A08B601B6070A128A1104210A128A11F7
:1008A800472C83120313A10007145A2C5B2C8312C4
:1008B80003132108013E0A128A1130230A128A11F1
:1008C8000A128A11BE2283120313A0002008A20074
:1008D80007102208080083120313AC000714742CB5
:1008E800752C831203132C080A128A1130230A125A
:1008F8008A11831203132B080A128A1130238312D8
:1009080003130710080083120313AF002F08AD006C
:1009180006300310AD0DFF3E031D8D2C03102D0D69
:10092800AE002E08AB008C300A128A116F24080022
:1009380083120313AE002E080A128A117F220A12AC
:100948008A1183120313AD002D08AB008C300A12F4
:100958008A116F2408007E088A007F088200AF246D
:100968000A128A118000840A04087D0603190034DB
:10097800FF0A0319FE0AB32CF700F601771CC82CEE
:100988007408F5007508F6070310F40D0310F70C4A
:10099800F708031DC22C7608080083160313871076
:1009A800071107108312031387100711071079081E
:1009B8000A128A11872408003F3406345B344F3406
:1009C80066346D347D3407347F346F348C300A12CA
:1009D8008A1155240A128A110A128A110D24080054
:1009E80088300A128A1155240A128A110A128A11A9
:1009F8000D24080082300A128A1155240A128A111D
:100A08000A128A110D24080086300A128A11552408
:100A18000A128A110A128A110D2408008316031378
:0C0A2800880106128612061386130800CF
:02400E0071FF40
:00000001FF
